:10000000FBEF00F00000000000EF00F00000000037
:0A0010000000000000000000F3D71C
:0E001C00030E0D6E0D2EFED700000000120028
:10002A00560E0C6EB50E0D6E0D2EFED70C2EFCD78D
:06003A00000000001200AE
:0E004000C70E0D6E0D2EFED700000000120040
:10004E004EBE02D0839E01D0838E4EBC02D0839CC6
:10005E0001D0838C4EBA02D0839A01D0838A4EB8D7
:10006E0002D0839801D0838847B002D0838201D01A
:10007E0083928380CCDF83904EB602D0839E01D0D4
:10008E00838E4EB402D0839C01D0838C4EB202D0AC
:10009E00839A01D0838A4EB002D0839801D0838890
:1000AE0047B002D0838201D083928380B0DF8390E9
:0C00BE0047A002D0B3DF01D0BCDF12006D
:0C00CA0047904DC04EF0BEDF4780120092
:1000D6000900F5CFE6FF0006FBE10106F9E1120093
:1000E600959095929598959A959C959E83908392D6
:1000F600839E839C839A839895DF94DF93DF838A1C
:100106008388838088DF83908DDF838084DF83907C
:1001160089DF838080DF839085DF839883807BDF20
:10012600839080DF838077DF8390839A838E8380BA
:1001360072DF839077DF839E838883806CDF839072
:100146008398838068DF83906DDF838064DF83908C
:100156008388838060DF839065DF839883805BDF9D
:100166008390838E838C838A8388838054DF8390F5
:0601760059DF4780120072
:10017C000FD0800E486E19D0C00E486E16D0940E5B
:10018C00486E13D0D40E486E10D0800E486E0DD031
:10019C004850010AEEE04850020AEEE04850030ACB
:1001AC00EEE04850040AEEE0F0D74904006E4850E7
:1001BC00002600C048F000C04EF043DF47904C6A68
:1001CC004C504A24E96E000E4B20EA6EEE520BE0C6
:1001DC004C504A24E96E000E4B20EA6EEECF4DF0E7
:0A01EC006EDF4C2AEDD747801200A9
:1001F60045EC01F0956A836A73DF010E4E6E24DFCB
:100206000C0E4E6E21DF010E486E010E496E380E41
:100216004A6E000E4B6EAFDF020E486E010E496E3F
:100226002D0E4A6E000E4B6EA6DF030E486E010EB3
:10023600496E150E4A6E000E4B6E9DDF040E486E1B
:10024600010E496E180E4A6E000E4B6E94DFFFD7F4
:02025600FFD7D0
:10028A0010EE15F0320E006E010E016E580EF66E6B
:0E029A00020EF76E000EF86E6BEC00F0120014
:030258004D520004
:10025B004142434445464748494A313233343536A7
:05026B003738393000B6
:0B02700050494331384634353530002A
:0F027B0075537461727420666F7220504943008E
:020000040030CA
:0E000000000C1F1EFF8381FF0FC00FE00F409A
:00000001FF
