:10000000F4EF04F00000000000EF00F0000000003A
:0A0010000000000000000000F3D71C
:08001C000AAE029E000E120064
:100024000B820BAE1CEF00F00368026801680068E5
:080034000A360232FF0E120031
:10003C000B840BAE29EF00F0010E036E026A016A0D
:0A004C00006A0A360232FF0E1200AD
:0E005600026A016A006A086A036A000E12005C
:10006400086A096A000E07620364B7EF00F00250E1
:1000740006180A6E075003267E0ED8A048EF00F03B
:10008400035ED8B0BBEF00F04CEF00F0035ED8A0E5
:10009400BFEF00F0028E068E02C00EF001C00BF01E
:1000A40000C00DF000500402F4CF0CF00150050222
:1000B400F4CF00F0F3CF08F00402F3500C26F45010
:1000C4000822000E00220D500502F3500C26F450B5
:1000D4000822000E002202500402F3500826F450B5
:1000E400002202500502016A000E0122F35000268C
:1000F400F45001220D500602F3500826F450002259
:10010400026A000E012202220B500602F35000265E
:10011400F4500122000E02220E500602F350012672
:10012400F450022202BE9FEF00F00836003601367A
:1001340002360306D8B4BFEF00F0B2EF00F0D88067
:10014400800E08640030000E002201220222D8A092
:10015400B2EF00F0023201320032034ABBEF00F08A
:100164000AAE029E000EC1EF00F0010E72DFC1EF75
:1001740000F0020E55DFC1EF00F0040E5DDF120047
:0E018400570E0D6E0D2EFED70000000012006B
:080192000B6A0B86FF0E120040
:0E019A00ACB202D00000FCD755C0ADFF120081
:1001A800086A080E0C6E003408360450085ED8B091
:0E01B80002D00826D89000360C2EF5D7120083
:1001C6000A6A0350D8A40A800750D8A40A820A50A3
:1001D600D8B446EF01F0030AD8B4FFEF00F00AB036
:1001E600FAEF00F006AE44EF01F042EF01F002AE86
:1001F60042EF01F044EF01F00250800B0A6E029EBE
:100206000650800B069E0A18D8B410EF01F00A506B
:10021600D8B442EF01F044EF01F00750035CD8B4C4
:100226001AEF01F0D8A036EF01F03CEF01F00650CE
:10023600025CD8B424EF01F0D8A036EF01F03CEF11
:1002460001F00550015CD8B42EEF01F0D8A036EFCE
:1002560001F03CEF01F00450005CD8B446EF01F029
:10026600D8B03CEF01F00A52D8B444EF01F042EFA7
:1002760001F00A52D8B442EF01F044EF01F0D88001
:0E0286001200D8901200D880D8841200120006
:1002940055C004F056C005F004C002F005C003F0D8
:1002A400044A052A57C000F058C001F0574A582A9A
:1002B40000C0E9FF01C0EAFF02C0E1FF03C0E2FFA2
:1002C400EECFE6FF02C0E9FF03C0EAFFEE5201E011
:0C02D400E3D755C000F056C001F0120046
:1002E0000C6A0E6A0250D8A489EF01F001C002F036
:1002F00000C001F0006A0E860250D8A489EF01F018
:1003000001C002F0016A0E960E880250D8B49BEF2D
:1003100001F00E50035ED8A4D8A0A0EF01F0D89051
:1003200002BEA5EF01F0003601360236032E90EF33
:1003300001F0A0EF01F0010E0C6E8DDEA8EF01F0D0
:10034000020E0C6E7BDEA8EF01F0040E0C6E66DE72
:02035000120099
:100352009A0E436E010E446E550E456E000E466EA9
:10036200FF0E3B6EFF0E3C6E000E3D6E000E3E6EAB
:10037200FF0E336EFF0E346E000E356E000E366EBB
:10038200FF0E376EFF0E386E000E396E000E3A6E9B
:10039200AC8A900EAB6E948E949C9EAA03D0AECF84
:0603A20000F0FBD7120081
:1003A800C26A070EC012C08E47C000F00036009027
:1003B800003600900050C212C280E0DEC282C2A2A3
:1003C80001D0FDD7C4CF01F0006AC3500012000E5F
:0603D8000112C2901200A8
:1003DE00FF0E1F6EFF0E206EFF0E216EFF0E226EA1
:0C03EE00C26A070EC012C08EC28012004E
:1003FA000050086E0150006E016A026A036A0B6AB5
:10040A000C6A960E036E0A6A00C001F008C000F07A
:08041A00086A026A60DF1200AB
:100422004A6A47C0E9FF48C0EAFFEECF49F04950A7
:10043200000A0DE049C055F0AFDE4A2A4A5047246F
:10044200E96E000E4820EA6EEECF49F0F0D71200B6
:100452000900F5CFE6FF0006FBE10106F9E1120013
:100462000450000A12E10550000A0FE10650000A8A
:100472000CE10750000A09E1FF0E006EFF0E016E4B
:100482007F0E026EFF0E036EA4D0086A096A07503F
:10049200D8B4DCEF02F00350D8B4E0EF02F002501F
:1004A20006180A6E028E068E0E6A02C008F001C09D
:1004B2000CF000C00DF004500D5E0550D8A0053CB4
:1004C2000C5E0650D8A0063C085E086A0C6A0D6AEB
:1004D200D8A073EF02F0D890023201320032083213
:1004E200010E0E6E0750035ED8A080EF02F07E0E62
:1004F2000E240326D8B0E4EF02F086EF02F07E0E5F
:100502000E240326D8A0E8EF02F0180E0B6E0D366B
:100512000C3608360036013602360E360450005EBE
:100522000550D8A0053C015E0650D8A0063C025EEC
:1005320006340E120EA0A1EF02F00D80ACEF02F015
:10054200045000260550D8B0053C01260650D8B00C
:10055200062802260D900B2E88EF02F0D2EF02F051
:10056200D8900036013602360E360450005E055031
:10057200D8A0053C015E0650D8A0063C025E0634B7
:100582000E10010B0D26D8B00C2AD8B4082AD8A414
:10059200D2EF02F008320C320D32032AD8B4E4EF63
:1005A20002F00AAE089E0850026E0C50016E0D5009
:1005B200006EEAEF02F0010EEBDDEAEF02F0020E4E
:1005C20049DDEAEF02F0040E2CDDEAEF02F0080E3C
:0405D20034DD120002
:1005D600536A546A47C04FF048C050F049C051F0C2
:1005E6004AC052F05250FF0A08E15150FF0A05E195
:1005F6005050FF0A02E14F50FF0A0CE14BC055F084
:100606004CC056F0150E576E000E586E40DE030EA7
:10061600006EE6D1010E4D6E51AE0ED0800E511811
:10062600006E00C051F04D2A4BC0E1FF4CC0E2FF06
:100636002D0EE66E4B4A4C2A000E006E521808E14B
:100646000050511805E10050501802E14F50000AC1
:100656000BE14BC055F04CC056F01D0E576E000E08
:10066600586E15DE006ABCD15250FF0A08E151509F
:10067600000A05E15050000A02E14F50000A0CE161
:100686004BC055F04CC056F0190E576E000E586E02
:10069600FEDD4DC000F0A4D1000E046E000E056E06
:1006A600000E066E7F0E076E4FC000F050C001F0C0
:1006B60051C002F052C003F083DD010ED8B0000E27
:1006C600006E00521BE04FC000F050C001F051C058
:1006D60002F052C003F0000E046E000E056E200EEE
:1006E600066E820E076EBBDC00C04FF001C050F0F4
:1006F60002C051F003C052F05406CED7000E046E6D
:10070600000E056E200E066E820E076E4FC000F0BC
:1007160050C001F051C002F052C003F051DD000E8E
:10072600D8B0010E006E00521BE04FC000F050C062
:1007360001F051C002F052C003F0CD0E046ECC0E93
:10074600056E4C0E066E7B0E076E89DC00C04FF000
:1007560001C050F002C051F003C052F0542ACED767
:10076600FF0E4F14086EFF0E5014096E7F0E5114C3
:100776000A6E000E52140B6E08C004F009C005F094
:100786000AC006F00BC007F004360490053606369C
:100796000736000E4F14006E000E5014016E000E48
:1007A6005114026EFF0E5214036E00C04FF001C0CA
:1007B60050F002C051F003C052F004504F10006ECA
:1007C60005505010016E06505110026E075052101F
:1007D600036E00C04FF001C050F002C051F003C0DC
:1007E60052F07F0E525C006E00C04EF0010E526E4B
:1007F60000C004F04FC000F050C001F051C002F03C
:1008060052C003F0045007E000360090013602366D
:100816000336FF0FF8D700C04FF001C050F002C0FA
:1008260051F003C052F04BC0E1FF4CC0E2FF525002
:10083600300FE66E4B4A4C2A800E5418006E800E1E
:10084600010A005C08E3800E060A006E800E54184A
:10085600005C01E30AD04BC0E1FF4CC0E2FF2E0E64
:10086600E66E4B4A4C2A010E536E060E4E6E4E50E5
:10087600000A54E0526A4FC000F050C001F051C067
:1008860002F052C003F000360090013602360336FD
:10089600003600900136023603364F50002650507F
:1008A6000122515002225250032200C04FF001C0D3
:1008B60050F002C051F003C052F04FC000F050C0DB
:1008C60001F051C002F052C003F00036009001362C
:1008D6000236033600C04FF001C050F002C051F09E
:1008E60003C052F04BC0E1FF4CC0E2FF5250300F44
:1008F600E66E4B4A4C2A5350000A0EE154065450F9
:10090600000A0AE14BC0E1FF4CC0E2FF2E0EE66E84
:100916004B4A4C2A010E536E4E06A9D7FF0E4B24A6
:10092600E96EFF0E4C20EA6EEE50300A05E1010E2C
:100936004B5E000E4C5AF2D7FF0E4B24E96EFF0EAB
:100946004C20EA6EEE502E0A04E1010E4B5E000EBC
:100956004C5A5450000A3EE04BC0E1FF4CC0E2FF47
:10096600650EE66E4B4A4C2A800E5418006E800EB9
:10097600000A005C0BE24BC0E1FF4CC0E2FF2D0E0B
:10098600E66E4B4A4C2A54500008546E54C04EF042
:10099600545009080EE20A0E046E4EC000F001DC47
:1009A6004BC0E1FF4CC0E2FF0050300FE66E4B4AF1
:1009B6004C2A0A0E046E4EC000F0D4EC00F008C0BB
:1009C60000F04BC0E1FF4CC0E2FF0050300FE66E76
:1009D6004B4A4C2A4BC0E1FF4CC0E2FFE66A006A74
:0209E6001200FD
:1009E8006AEC05F00A0EC16E070EB46EB886040EE6
:1009F800B06EE10EAF6EAC84A8DC9C0E0C6ED70E08
:100A08000D6E0D2EFED70C2EFCD7E5DC3D0E0B6EC1
:100A1800E10E0C6E3F0E0D6E0D2EFED70C2EFCD780
:100A28000B2EFAD700000000040E476EB9DCE1DC9B
:100A380000C03FF001C040F002C041F003C042F0E6
:100A4800570E0D6E0D2EFED7000000003FC000F0BF
:100A580040C001F041C002F042C003F0000E046E35
:100A6800000E056E200E066E810E076E32EC00F049
:100A7800000E046EC00E056E7F0E066E880E076EA1
:100A8800ECDC00C03FF001C040F002C041F003C000
:100A980042F000C047F001C048F002C049F003C06E
:100AA8004AF0230E4B6E000E4C6E91DD230E476EFE
:100AB800000E486EB2DC0D0E556ECDEC00F0A6D7D8
:020AC800FFD756
:100AD40010EE15F00A0E006E010E016ECA0EF66ECF
:0E0AE4000A0EF76E000EF86E29EC02F01200FA
:040ACA004E614E002B
:040ACE00494E460047
:020AD2003000F2
:020000040030CA
:0E000000000C1F1EFF8381FF0FC00FE00F409A
:00000001FF
