:100000004FEF00F00000000000EF00F000000000E3
:0A0010000000000000000000F3D71C
:10001C00AECF01F0ABA202D0AB98AB8801C000F020
:02002C001200C0
:10002E000900F5CFE6FF0006FBE10106F9E112003B
:0A003E00000E9EBA010E006E1200C3
:10004800FF0E226EFF0E236EFF0E246EFF0E256E2E
:100058001C0E1D6E000E1E6E000E1F6E000E206E12
:100068003E0E156E000E166E000E176E000E186E00
:10007800FF0E196EFF0E1A6E000E1B6E000E1C6E20
:10008800AC8A900EAB6E948E949C9EAA03D0AECF91
:0600980000F0FBD712008E
:10009E00B886040EB06EE10EAF6EAC84CEDF9C0E51
:1000AE000C6ED70E0D6E0D2EFED70C2EFCD7929227
:1000BE008092BEDF00520CE0AADF00C021F000509B
:1000CE00410A02E1808204D02150420AD8B48092C3
:0400DE00F0D7FFD781
:020000040030CA
:0E000000000C1F1EFF8381FF0FC00FE00F409A
:00000001FF
